:100000000C9434000C9449000C9449000C94490061
:100010000C9449000C9449000C9449000C9449003C
:100020000C9449000C9449000C9449000C9449002C
:100030000C9449000C9449000C9449000C9449001C
:100040000C9449000C9449000C9449000C9449000C
:100050000C9449000C9449000C9449000C944900FC
:100060000C9449000C94490011241FBECFEFD8E036
:10007000DEBFCDBF11E0A0E0B1E0ECEBF1E002C0EB
:1000800005900D92AE31B107D9F70E94CD000C94C6
:10009000DC000C940000282F207F2BB94398459A50
:1000A00020EA3FE0F9013197F1F74598F9013197DE
:1000B000F1F790E044E0880F991F4A95E1F78BB97A
:1000C000459AC9010197F1F74598C9010197F1F7E0
:1000D00008950F931F9380EF8AB987B1886387B91A
:1000E00080E28BB9459A00EA1FE0C8010197F1F759
:1000F0004598C8010197F1F788E20E944B00C801BA
:100100000197F1F78FE00E944B00C8010197F1F7CA
:1001100080E80E944B001F910F910895282F207FA7
:100120002BB9439A459A20E43FE1F9013197F1F761
:100130004598F9013197F1F790E054E0880F991F45
:100140005A95E1F78BB9459AC9010197F1F745989E
:10015000C9010197F1F70895CF93DF93EC0102C035
:100160000E948E0089918823D9F7DF91CF9108955D
:1001700081E00E944B0080E29EE40197F1F7089530
:100180008295880F880F807C8068860F0E944B00C4
:1001900088EC90E00197F1F708950E94690080E0F3
:1001A00091E00E94AC0081E060E00E94C0008EE01F
:0C01B00091E00E94AC000895F894FFCF8D
:1001BC0048656C6C6F2C20576F726C6421004C433B
:0E01CC004420697320776F726B696E670000C4
:00000001FF
